:020000040000FA
:06000000E0EF16F0120013
:020006001200E6
:06000800C1EF14F012002C
:02000E000000F0
:020010000000EE
:060018004FEF14F012008E
:02001E000600DA
:10002000A32E00002A0F000028000000872E0000E9
:10003000E10000001C0000000E0000000A010000AA
:1000400004000000262E0000800000006100000077
:10005000FC2D0000000F00002A000000DC2D000035
:08006000520F00002000000017
:08006800D9CFE6FFE1CFD9FF7B
:10007000040EE126DE6ADD6ADECF10F0DDCF11F07E
:10008000126A136A11AE02D012681368D950FB0FBE
:10009000E96EFF0EDA20EA6EEE50105CEE50115859
:1000A000EE501258EE5013581DE2020EDB6A030E9A
:1000B000DB6A020EDBCF10F0030EDBCF11F0D8901D
:1000C000115004E6050E105C000E115806E2020EF7
:1000D000DB2A030EEEE3DB2AECD7DF2A010ECCE3AA
:1000E000DB2ACAD7040EE15C02E2E16AE552E16E66
:1000F000E552E7CFD9FF1200D9CFE6FFE1CFD9FF14
:10010000040EE126DE6ADD6ADECF10F0DDCF11F0ED
:10011000126A136A11AE02D012681368D950FB0F2D
:10012000E96EFF0EDA20EA6EEE50105CEE501158C8
:10013000EE501258EE5013581DE2020EDB6A030E09
:10014000DB6A020EDBCF10F0030EDBCF11F0D8908C
:10015000115004E6EE0E105C000E115806E2020E7D
:10016000DB2A030EEEE3DB2AECD7DF2A010ECCE319
:10017000DB2ACAD7040EE15C02E2E16AE552E16ED5
:10018000E552E7CFD9FF1200D9CFE6FFE1CFD9FF83
:100190000F0E8116FE0EDB50F00B81128186010ED0
:1001A000E66EE66AE66AE66AA7DFE552E552E552E0
:1001B000E5528196010EE66EE66AE66AE66A9CDF23
:1001C000E552E552E552E5520F0E8116FE0EDB3880
:1001D000F00B81128186010EE66EE66AE66AE66A37
:1001E0008BDFE552E552E552E5528196010EE66E4F
:1001F000E66AE66AE66A80DFE552E552E552E552D4
:10020000E552E7CFD9FF1200D9CFE6FFE1CFD9FF02
:10021000E652190EE66EE66AE66AE66A6DDFE552B8
:10022000E552E552E5520F0E8116F80E81160F0EBB
:100230008116300E81128186010EE66EE66AE66A4C
:10024000E66A5ADFE552E552E552E5528196010E23
:10025000E66EE66AE66AE66A4FDFE552E552E55287
:10026000E5520F0E8116300E81128186010EE66E68
:10027000E66AE66AE66A40DFE552E552E552E55293
:100280008196010EE66EE66AE66AE66A35DFE552B9
:10029000E552E552E5520F0E8116300E811281862D
:1002A000010EE66EE66AE66AE66A26DFE552E55288
:1002B000E552E5528196010EE66EE66AE66AE66A66
:1002C0001BDFE552E552E552E5520F0E8116818A99
:1002D0008186010EE66EE66AE66AE66A0DDFE552A1
:1002E000E552E552E5528196010EE66EE66AE66A4F
:1002F000E66A02DFE552E552E552E552280EE66E67
:1003000043DFE5520C0EE66E3FDFE552E552E55263
:10031000E7CFD9FF1200D9CFE6FFE1CFD9FF020E18
:10032000E126DF6A010EDB6A81940F0EE66EE66A53
:10033000E66AE66A99DEE552E552E552E5520F0EAD
:1003400081128186E66EE66AE66AE66A8DDEE5522D
:10035000E552E552E5520F0E8114E76E010EE7CF2C
:10036000DBFF81960F0EE66EE66AE66AE66A7CDEE1
:10037000E552E552E552E5520F0E81128186E66E96
:10038000E66AE66AE66A70DEE552E552E552E55253
:100390000F0E8114DF6E010EDB50DF128196010E0D
:1003A000E66EE66AE66AE66A5FDEE552E552E55227
:1003B000E552DF50106E020EE15C02E2E16AE552A6
:1003C000E16E1050E552E7CFD9FF1200D9CFE6FF1A
:1003D000E1CFD9FFE652DF6A9EDFDF6EDFBEFCD7DA
:1003E000DF50E552E552E7CFD9FF1200D9CFE6FF43
:1003F000E1CFD9FF0F0E8116FE0EDB5081128186F0
:10040000050EE66EE66AE66AE66A2EDEE552E5521B
:10041000E552E5528196050EE66EE66AE66AE66A00
:1004200023DEE552E552E552E552E552E7CFD9FF2A
:100430001200D9CFE6FFE1CFD9FF8194050EE66E19
:10044000E66AE66AE66A10DEE552E552E552E552F2
:10045000FE0EDBCFE6FFCADFE552FE0EDB38F00B07
:10046000E66EC4DFE552E552E7CFD9FF1200D9CFDF
:10047000E6FFE1CFD9FF8184050EE66EE66AE66A03
:10048000E66AF2DDE552E552E552E552FE0EDBCFBB
:10049000E6FFACDFE552FE0EDB38F00BE66EA6DFC2
:1004A000E5528194E552E7CFD9FF1200D9CFE6FF9C
:1004B000E1CFD9FFFE0EDBCFE6FFD9DFE552E552F3
:1004C000E7CFD9FF1200D9CFE6FFE1CFD9FFFE0E6B
:1004D000DBCFE6FFCCDFE552E552E7CFD9FF1200D4
:1004E000D9CFE6FFE1CFD9FFFD0EDBCFF6FFFE0E41
:1004F000DBCFF7FF0800F5500FE0FD0EDBCFF6FF76
:10050000DB2AFE0EDBCFF7FF01E3DB2A0800F55004
:10051000E66ED9DFE552E8D7E552E7CFD9FF120002
:10052000D9CFE6FFE1CFD9FFE652FD0EDB500F0B2E
:10053000106EFE0EDB50010B400DF3501024DF6EE9
:100540007F0EDF14800FDF6EDFCFE6FF72DFE55234
:10055000E552E552E7CFD9FF1200010EE66E69DFE2
:10056000E552E66AE66ADCDFE552E5521200D9CFD1
:10057000E6FFE1CFD9FF050EE126010EF36EDB6E3B
:10058000020EDB6A030EDB6A040EDB6ADF6ADFCF72
:1005900010F0116A10BE1168FB0EDBCF12F0FC0EDA
:1005A000DBCF13F011501318E8AE02D0133404D08F
:1005B0001250105C135011582DE2FD0EDBCF10F0DD
:1005C000FE0EDBCF11F0126A136A11AE02D0126870
:1005D0001368D950010FE96EDACFEAFF10C00BF0B3
:1005E00011C00CF012C00DF013C00EF0EECF06F0EB
:1005F000EECF07F0EECF08F0EFCF09F041EC16F0A8
:1006000005C0EDFF04C0EDFF03C0EDFF02C0EFFF2A
:10061000DF2ABDD7010EDBCF10F0020EDBCF11F0C9
:10062000030EDBCF12F0040EDBCF13F010C006F088
:1006300011C007F012C008F013C009F0050EE15C0C
:1006400002E2E16AE552E16EE552E7CFD9FF12001E
:10065000D9CFE6FFE1CFD9FF020EE126DF6AFB0E1C
:10066000DBCF10F0FC0EDBCF11F0FD0EDBCF12F074
:10067000FE0EDBCF13F0105011101210131005E115
:10068000300EE66E20DFE552F4D0D950FB0FE96E54
:10069000FF0EDA20EA6ED890030EEB50000A08E64F
:1006A000000EEE5C000EEE58000EEE58000EEE58F6
:1006B00015E22D0EE66E07DFE552D950FB0FE96E0D
:1006C000FF0EDA20EA6E000EEE6CEF1EEE22EF1E39
:1006D000EE22EF1EEF22ED52ED52ED52DE52070EEA
:1006E000DD6E010EDBCF10F0000EE76E1018E8AEE5
:1006F00002D0103403D0E750D880105401E3B9D0B1
:10070000010EDB04146E156A14BE156814C0E6FFF2
:1007100015C0E6FF0A0EE66EE66A29DFE552E552ED
:10072000E552E55206C010F007C011F008C012F003
:1007300009C013F006C00BF007C00CF008C00DF0A4
:1007400009C00EF0FB0EDBCF06F0FC0EDBCF07F08E
:10075000FD0EDBCF08F0FE0EDBCF09F079EC16F0D2
:10076000065007100810091041E0010EDF6EDB048F
:10077000186E196A18BE196818C0E6FF19C0E6FF9E
:100780000A0EE66EE66AF3DEE552E552E552E55200
:1007900006C014F007C015F008C016F009C017F025
:1007A00006C00BF007C00CF008C00DF009C00EF039
:1007B000FB0EDBCF06F0FC0EDBCF07F0FD0EDBCF30
:1007C00008F0FE0EDBCF09F079EC16F006C010F051
:1007D00007C011F008C012F009C013F0300E102647
:1007E000000E112212221322105003D0DF5004E019
:1007F000300EE66E68DEE552010EDB04146E156AFB
:1008000014BE156814C0E6FF15C0E6FF0A0EE66EBA
:10081000E66AADDEE552E552E552E55206C010F05B
:1008200007C011F008C012F009C013F0D950FB0F37
:10083000E96EFF0EDA20EA6E06C00BF007C00CF07E
:1008400008C00DF009C00EF0EECF06F0EECF07F0B5
:10085000EECF08F0EFCF09F079EC16F005C0EDFF10
:1008600004C0EDFF03C0EDFF02C0EFFF010EDB0689
:1008700038D7020EE15C02E2E16AE552E16EE55230
:10088000E7CFD9FF1200D9CFE6FFE1CFD9FFFD0EA8
:10089000DBCFE6FFFE0EDBCFE6FF42DEE552E552A0
:1008A000D950F90FE96EFF0EDA20EA6EEECFE6FFBF
:1008B000EECFE6FFEECFE6FFEFCFE6FFC9DEE55273
:1008C000E552E552E552E552E7CFD9FF1200D9CF04
:1008D000E6FFE1CFD9FFFD0EDBCFE6FFFE0EDBCF5B
:1008E000E6FF1EDEE552E552FB0EDBCFE6FFFC0E17
:1008F000DBCFE6FFF5DDE552E552E552E7CFD9FF64
:100900001200D9CFE6FFE1CFD9FF7CCF10F07DCF29
:1009100011F0040ED89010361136E806FBE1C10E36
:100920001026000E112210500F017E25E96E115085
:100930007F21EA6EFE0EDBCFEFFF7E2B000E7F23C2
:10094000E552E7CFD9FF1200D9CFE6FFE1CFD9FFBB
:10095000E652DF6ADFCF10F0100EE76E1018E8AE37
:1009600002D0E73402D0E750105C18E2DFCFE9FF95
:10097000EA6AE9BEEA68C10EE926000EEA22200E04
:10098000EF6EDFCFE9FFEA6AE9BEEA68D10EE92639
:10099000000EEA22200EEF6EDF2ADCD7E552E55288
:1009A000E7CFD9FF1200D9CFE6FFE1CFD9FFE6525A
:1009B0000001C051030A52E0010A36E0030A1AE0BE
:1009C000010A67E1E66AE66AABDDE552E552DF6AF5
:1009D000080EDF5C0CE2DF50EA6AC10FE96E000E20
:1009E000EA22EF50E66E6FDDE552DF2AF1D7000113
:1009F000010E32D0080EE66EE66A92DDE552E5524F
:100A0000DF6A080EDF5C0DE2080EDF24EA6AC10F20
:100A1000E96E000EEA22EF50E66E55DDE552DF2A60
:100A2000F0D70001020E18D0E66A010EE66E78DDFE
:100A3000E552E552DF6A080EDF5C0CE2DF50EA6A3D
:100A4000D10FE96E000EEA22EF50E66E3CDDE55272
:100A5000DF2AF1D70001030EC06F1CD0080EE66E2E
:100A6000010EE66E5DDDE552E552DF6A080EDF5CE1
:100A70000DE2080EDF24EA6AD10FE96E000EEA22C9
:100A8000EF50E66E20DDE552DF2AF0D70001C06BA3
:100A900001D0C06BE552E552E7CFD9FF1200D9CFA4
:100AA000E6FFE1CFD9FFE6520001C051010A1BE089
:100AB000010A32E1E66AE66A33DDE552E552DF6AB1
:100AC000100EDF5C0CE2DF50EA6AC10FE96E000E27
:100AD000EA22EF50E66EF7DCE552DF2AF1D700019B
:100AE000010EC06F1AD0E66A010EE66E19DDE552FE
:100AF000E552DF6A100EDF5C0CE2DF50EA6AD10FCC
:100B0000E96E000EEA22EF50E66EDDDCE552DF2AE8
:100B1000F1D70001C06B01D0C06BE552E552E7CFC1
:100B2000D9FF1200D9CFE6FFE1CFD9FFE652E66A3E
:100B3000E66AF6DCE552E552DF6A100EDF5C0CE295
:100B4000DF50EA6AC10FE96E000EEA22EF50E66E4E
:100B5000BADCE552DF2AF1D7E66A010EE66EE0DC88
:100B6000E552E552DF6A100EDF5C0CE2DF50EA6A04
:100B7000D10FE96E000EEA22EF50E66EA4DCE552DA
:100B8000DF2AF1D7E552E552E7CFD9FF1200D9CFDE
:100B9000E6FFE1CFD9FFFE0EDB50010B0F017C6FAA
:100BA0007D6BFD0EDB500F0B7E6F7F6B7CCF10F0EB
:100BB0007DCF11F0040ED89010361136E806FBE117
:100BC000C10E1026000E112210500F017E25E96E75
:100BD00011507F21EA6EFC0EDBCFEFFFE552E7CF2D
:100BE000D9FF1200D9CFE6FFE1CFD9FF020EE126EF
:100BF000DF6AFE0EDB50010B0F017C6F7D6BFD0E7B
:100C0000DB500F0B7E6F7F6BF90EDBCF10F0FA0E0F
:100C1000DBCF11F0FB0EDBCF12F0FC0EDBCF13F0BD
:100C2000105011101210131005E1300EE66E69DE3F
:100C3000E552F5D0D950F90FE96EFF0EDA20EA6ED1
:100C4000D890030EEB50000A08E6000EEE5C000E92
:100C5000EE58000EEE58000EEE5815E22D0EE66E20
:100C600050DEE552D950F90FE96EFF0EDA20EA6E38
:100C7000000EEE6CEF1EEE22EF1EEE22EF1EEF22B4
:100C8000ED52ED52ED52DE52070EDD6E010EDBCF5E
:100C900010F0000EE76E1018E8AE02D0103403D04A
:100CA000E750D880105401E3BAD0010EDB04146E73
:100CB000156A14BE156814C0E6FF15C0E6FF0A0EDB
:100CC000E66EE66A54DCE552E552E552E55206C0AE
:100CD00010F007C011F008C012F009C013F006C0F0
:100CE0000BF007C00CF008C00DF009C00EF0F90EB3
:100CF000DBCF06F0FA0EDBCF07F0FB0EDBCF08F000
:100D0000FC0EDBCF09F079EC16F006500710081046
:100D1000091041E0010EDF6EDB04186E196A18BE7F
:100D2000196818C0E6FF19C0E6FF0A0EE66EE66A0B
:100D30001EDCE552E552E552E55206C014F007C04C
:100D400015F008C016F009C017F006C00BF007C078
:100D50000CF008C00DF009C00EF0F90EDBCF06F064
:100D6000FA0EDBCF07F0FB0EDBCF08F0FC0EDBCF7B
:100D700009F079EC16F006C010F007C011F008C0B9
:100D800012F009C013F0300E1026000E11221222AC
:100D90001322105003D0DF5004E0300EE66EB1DDB8
:100DA000E552010EDB04146E156A14BE156814C0FA
:100DB000E6FF15C0E6FF0A0EE66EE66AB7EC02F043
:100DC000E552E552E552E55206C010F007C011F0B9
:100DD00008C012F009C013F0D950F90FE96EFF0EE8
:100DE000DA20EA6E06C00BF007C00CF008C00DF068
:100DF00009C00EF0EECF06F0EECF07F0EECF08F010
:100E0000EFCF09F079EC16F005C0EDFF04C0EDFF5F
:100E100003C0EDFF02C0EFFF010EDB0637D7020E65
:100E2000E15C02E2E16AE552E16EE552E7CFD9FF0B
:100E30001200D9CFE6FFE1CFD9FFFE0EDB50010B48
:100E40000F017C6F7D6BFD0EDB500F0B7E6F7F6B98
:100E5000FB0EDBCFF6FFFC0EDBCFF7FF0800F550F3
:100E60000FE0FB0EDBCFF6FFDB2AFC0EDBCFF7FF3C
:100E700001E3DB2A0800F550E66E43DDE552E8D7D2
:080E8000E552E7CFD9FF120093
:080E88004AD85FEC0EF06AD8B5
:100E9000D3EC04F0FAD7D9CFE6FFE1CFD9FF040EA7
:100EA000E126DE6ADD6ADECF10F0DDCF11F0FD0E47
:100EB000DBCF12F0FE0EDBCF13F011501318E8AEAB
:100EC00002D0133404D01250105C135011581DE29C
:100ED000020EDB6A030EDB6A020EDBCF10F0030E9C
:100EE000DBCF11F0D890115004E6640E105C000EB8
:100EF000115806E2020EDB2A030EEEE3DB2AECD7E2
:100F0000DF2A010ED0E3DB2ACED7040EE15C02E239
:100F1000E16AE552E16EE552E7CFD9FF1200806A3F
:100F2000836A936A956A926A04EC01F0A4EC04F077
:100F300047EC14F0E80EE66E030EE66EACDFE55209
:100F4000E5528E0EE66E260EE66E1CEC13F0E552B0
:100F5000E552640EE66EE66A28EC14F0E552E552BE
:100F6000ACEF0DF00F012551090A01E101D2010A90
:100F700001E1ADD10C0A01E17CD1070A01E13FD1C9
:100F8000010A01E130D1030A01E1BCD0070A53E0B4
:100F9000030A46E0050A01E01200000EE66EE66A6A
:100FA000F0DAE552E5520F01266B276B286B0F0133
:100FB000786B796B7A6B7B6B776B2D0EE66E2B0EF5
:100FC000E66EE66AE66A19EC07F0E552E552E5528C
:100FD000E5521C0EE66E2B0EE66EE66A010EE66E1C
:100FE00019EC07F0E552E552E552E552BADA00098C
:100FF00003E00F01266B1BD0D6DAF3CF10F0F4CF4D
:1010000011F0F350F41001E1D8D1A00EE66E0F0EEE
:10101000E66E28EC14F0E552E5520F01050EEDD016
:10102000C0EC0CF09EDA000901E1C7D10F01276B7B
:10103000286B060EE2D0020EE66EE66AFADAE55298
:10104000E5520B0EE66E2B0EE66EE66AE66A19ECCA
:1010500007F0E552E552E552E552FA0EE66E2A0E29
:10106000E66EE66A010EE66E19EC07F0E552E5520F
:10107000E552E5527EDA00090AE00F01010E256F04
:10108000266B0F01786F796B0F01276B286B17DACE
:1010900000092AE0090E0F01765D0AE10F01010E39
:1010A000256F0F017A6B7B6B0F01276B286B1CD0B0
:1010B000A00EE66E0F0EE66E28EC14F0E552E55237
:1010C0000F01276B286B0F017651E96EEA6AD89001
:1010D000E936EA36E50EE926000EEA22010EEE6E4A
:1010E000ED6A0F01050E256F0F01272B000E282337
:1010F000D890285104E6F40E275D010E285901E22C
:101100005CD16FD0000EE66EE66A3BDAE552E5523E
:101110000F01785179110CE1E90EE66E2A0EE66EA8
:10112000E66AE66A19EC07F0E552E552E552E55247
:101130000F01010E78190EE179510CE1D80EE66E1F
:101140002A0EE66EE66AE66A19EC07F0E552E55209
:10115000E552E5520F017A517B1113E11C0EE66E48
:101160002B0EE66EE66A010EE66E19EC07F0E5520C
:10117000E552E552E5520F01266B010E0F017A6F21
:101180007B6B0F01272B000E2823C2D900091AE020
:10119000D60EE66E2A0EE66E26CFE6FF010EE66E4E
:1011A00019EC07F0E552E552E552E5520F012651E0
:1011B000EA6A720FE96E0F0EEA2276CFEFFF262B56
:1011C000276B286B040E0F01265D02E3020E256FCC
:1011D000D890285104E6F40E275D010E285901E24B
:1011E000ECD0256B1200276B286BE8D8000903E0D0
:1011F0000F01030E02D00F01040E256F1200272BE2
:10120000000E2823C50EE66E2A0EE66EE66AE66A32
:1012100019EC07F0E552E552E552E5520F01C80E10
:10122000271926E1285101E0C8D0276B286B0F0150
:10123000785179110FE1010E0001F76FF86BA00EE4
:10124000E66E0F0EE66E28EC14F0E552E5520F0143
:10125000050E256F0F01010E78190AE1795101E0A1
:10126000ACD00F01080E256F266B0F017A6B7B6BDC
:101270001200010EE66EE66A84D9E552E5520F01CE
:10128000272B000E2823B40EE66E2A0EE66EE66AC1
:10129000E66A19EC07F0E552E552E552E5520F0116
:1012A000C80E271913E1285101E087D00F01772BD1
:1012B000030E775D03E30F01256B12000F01276B0F
:1012C000286B010E256F0F017A6B7B6B1200A30E4A
:1012D000E66E2A0EE66EE66AE66A19EC07F0E5525B
:1012E000E552E552E5520F017A517B1113E11C0ED4
:1012F000E66E2B0EE66EE66A010EE66E19EC07F05E
:10130000E552E552E552E5520F01266B010E0F0141
:101310007A6F7B6B0F01272B000E2823F9D8000969
:101320001AE0D60EE66E2A0EE66E26CFE6FF010E16
:10133000E66E19EC07F0E552E552E552E5520F0171
:101340002651EA6A720FE96E0F0EEA2276CFEFFF9E
:10135000262B276B286B040E0F01265D02E3090E76
:10136000256FC80E271903E1285127E1256B1200CC
:10137000920EE66E2A0EE66EE66AE66A19EC07F051
:10138000E552E552E552E5521C0EE66E2B0EE66E76
:10139000E66A010EE66E19EC07F0E552E552E552F9
:1013A000E5526CD80F01272B000E2823C80E2719F1
:1013B00003E1285102E1256B12001200D9CFE6FFAC
:1013C000E1CFD9FF040EE126010EF36E020EF3CF3A
:1013D000DBFF030EDB6ADF6A050EDF5C43E2010E12
:1013E000F36E020EF3CFDBFF030EDB6A010EDB6A46
:1013F000040EF36E010EDBCFF4FFF350F45C24E235
:10140000010EDB50EA6A720FE96E0F0EEA22EFCF8F
:1014100010F0DF50040DF3CF11F0F4CF12F0200ED6
:1014200011260F0E1222010EDB501124E96E000E60
:101430001220EA6EEF50105C04E0020EDB6A030E2D
:10144000DB6A010EDB2AD4D7D950020FE96EDACF5E
:10145000EAFF010EEE1804E1ED5002E1DF2802D0B0
:10146000DF2ABAD7106E040EE15C02E2E16AE552AF
:10147000E16E1050E552E7CFD9FF1200D9CFE6FF59
:10148000E1CFD9FFE652DF6A040EDF5C13E2DF50E2
:10149000EA6A720FE96E0F0EEA22EF50E66EDF5035
:1014A000EA6A200FE96E0F0EEA22E552E750EF6E6E
:1014B000DF2AEAD7E552E552E7CFD9FF1200D9CFAC
:1014C000E6FFE1CFD9FFE652DF6ADF5009081AE3F1
:1014D000EA6ADF34FE0BEA36E96E2A0EE9260F0EC1
:1014E000EA22010EEE180CE1ED500AE1DF50EA6A43
:1014F000100FE96E0F0EEA22EFCF76FF010E03D038
:10150000DF2AE3D7000EE552E552E7CFD9FF1200FC
:10151000D9CFE6FFE1CFD9FFE652DF6ADF500F08EF
:101520001AE3EA6ADF34FE0BEA36E96E2A0EE92690
:101530000F0EEA22010EEE180CE1ED500AE1DF5029
:10154000EA6A100FE96E0F0EEA22EFCF76FF010E66
:1015500003D0DF2AE3D7000EE552E552E7CFD9FFEB
:1015600012000F01010E461903E1475101E1010C80
:10157000000C0F01010E481903E1495101E1010C72
:10158000000CD9CFE6FFE150FD0FE96EFF0EDA2027
:10159000EA6EEE50ED1002E1836A01D08380E552DD
:1015A000E7CFD9FF1200D9CFE6FFE1CFD9FF020E76
:1015B000E126DE6ADD6ADECF10F0DDCF11F0D890D3
:1015C000115004E60A0E105C000E115818E2DECF2E
:1015D000E9FFDDCFEAFFD890E936EA36E50EE926E5
:1015E000000EEA22010EEE1805E1ED5003E1010EB6
:1015F000F36E06D0DF2A010EDEE3DB2ADCD7F36AC6
:10160000F46A020EE15C02E2E16AE552E16EE55243
:10161000E7CFD9FF1200E1C0E9FFE2C0EAFFD890AE
:10162000E936EA36E50EE926000EEA22EE6AED6AB0
:101630001200D9CFE6FFE1CFD9FFE150FD0FE96EEF
:10164000FF0EDA20EA6EEE50ED1001E18084D950F1
:10165000FD0FE96EFF0EDA20EA6E010EEE1803E1CF
:10166000ED5001E18086D950FD0FE96EFF0EDA20C2
:10167000EA6E020EEE1803E1ED5001E1808AE552B8
:10168000E7CFD9FF1200D9CFE6FFE1CFD9FFA4EC15
:1016900004F0D950FD0FE96EFF0EDA20EA6EEE502D
:1016A000ED1027E1FD0EDBCFE6FFFE0EDBCFE6FF00
:1016B000C0DFE552E552E1C010F0E2C011F0126A5D
:1016C000136A11AE02D01268136810C0E6FF11C091
:1016D000E6FF12C0E6FF13C0E6FFE66AE66AF2EC38
:1016E00005F0146E060EE15E1450820EE66E2A0EB0
:1016F00063D0D950FD0FE96EFF0EDA20EA6E010EBD
:10170000EE1829E1ED5027E1FD0EDBCFE6FFFE0EDE
:10171000DBCFE6FF8EDFE552E552E1C010F0E2C01C
:1017200011F0126A136A11AE02D01268136810C069
:10173000E6FF11C0E6FF12C0E6FF13C0E6FFE66A4F
:10174000E66AF2EC05F0146E060EE15E1450620ECD
:10175000E66E2A0E31D0D950FD0FE96EFF0EDA2069
:10176000EA6E020EEE183FE1ED503DE1FD0EDBCFDB
:10177000E6FFFE0EDBCFE6FF5CDFE552E552E1C09F
:1017800010F0E2C011F0126A136A11AE02D01268B2
:10179000136810C0E6FF11C0E6FF12C0E6FF13C0D9
:1017A000E6FFE66AE66AF2EC05F0146E060EE15E0C
:1017B0001450520EE66E2A0EE66E020EE66EE66AD1
:1017C00019EC07F0E552E552E552E552720EE66E6D
:1017D0002A0EE66EE66A010EE66E19EC07F0E55297
:1017E000E552E552E552E552E7CFD9FF1200D9CFD5
:1017F000E6FFE1CFD9FF020EE126010E0001FB1941
:1018000001E1FC515BE0FB5101E0B0D0FC5101E093
:10181000ADD0E1C010F0E2C011F01006000E115A78
:1018200010C0DEFF11C0DDFFDECF10F0DDCF11F004
:101830000001800E11142EE1DECFE9FFDDCFEAFFBB
:10184000D890E936EA36E50EE926000EEA22010EC6
:10185000EE181BE1ED5019E10001020EF91901E14A
:10186000FA510EE0E1C010F0E2C011F01006000ED7
:10187000115A1050DF1803E11150DE52DD180AE052
:10188000DECFE3F0DDCFE4F005D0DF06010ECCE2E1
:10189000DB06CAD70001E4510001E219E8AE02D02C
:1018A000E23507D0E1510001E35D0001E2510001A2
:1018B000E4595CE3010E0001FB6F57D0010E0001FB
:1018C000116AE125106EE251112210C0DEFF11C035
:1018D000DDFFDECF10F0DDCF11F0D890115004E61F
:1018E0000A0E105C000E11582EE2DECFE9FFDDCFAC
:1018F000EAFFD890E936EA36E50EE926000EEA223C
:10190000010EEE181BE1ED5019E10001020EF9196C
:1019100001E1FA510EE0010E0001116AE125106E9D
:10192000E25111221050DF1803E11150DE52DD1890
:101930000AE0DECFE3F0DDCFE4F005D0DF2A010ED0
:10194000C8E3DB2AC6D70001E2510001E419E8AE82
:1019500002D0E43507D0E3510001E15D0001E4511C
:101960000001E25903E30001FB6BFC6B020EE15C3A
:1019700002E2E16AE552E16EE552E7CFD9FF1200DB
:1019800036DF020E0001F91901E1FA5101E19BD0A5
:10199000010EF91901E1FA5161E0F95101E1FA5141
:1019A00028E0040EF91901E1FA5101E01200020EDB
:1019B000E66EE66A68DEE552E552F5DDF3CF10F03B
:1019C000F4CF11F0010EF31813E1115001E0C3D070
:1019D000A00EE66E0F0EE66E28EC14F0E552E5520E
:1019E000010E0001FB6FFC6B020E0001F96FFA6B38
:1019F0001200F9C0E6FFFAC0E6FF45DEE552E55207
:101A0000F9C0FBF0FAC0FCF00F015D050FE1D00E4C
:101A1000E66E070EE66E28EC14F0E552E552000182
:101A2000E107000EE25B0001F96BFA6B0001E35184
:101A30000001E11912E10001E4510001E21901E0A5
:101A40008AD0A00EE66E0F0EE66E28EC14F0E5527A
:101A5000E552020E0001F96FFA6B1200F9C0E6FFC1
:101A6000FAC0E6FF10DEE552E552F9C0FBF0FAC01D
:101A7000FCF00F015D0510E1D00EE66E070EE66E7C
:101A800028EC14F0E552E5520001E12B000EE223B0
:101A9000010E0001F96FFA6B0001E3510001E11939
:101AA00011E10001E4510001E21955E1A00EE66EDA
:101AB0000F0EE66E28EC14F0E552E552020E00011E
:101AC000F96FFA6B1200F9C0E6FFFAC0E6FFDBDD42
:101AD000E552E552A0DD8BDE0F015D053CE1D00E45
:101AE000E66E070EE66E28EC14F0E552E5527FDE56
:101AF0000001E2510001E419E8AE02D0E43507D05C
:101B0000E3510001E15D0001E4510001E25907E207
:101B1000010E0001F96FFA6B0001FB6F15D0000197
:101B2000E4510001E219E8AE02D0E23507D0E151FC
:101B30000001E35D0001E2510001E45907E2000108
:101B4000F96BFA6B0001FB6BFC6B1200020E0001DB
:081B5000F96FFA6B120012009C
:081B58000F0E946E826812006A
:101B6000D9CFE6FFE1CFD9FF040EE126DE6ADD6AB8
:101B7000DECF10F0DDCF11F0D890115004E6040E46
:101B8000105C000E115801E390D0DECFE9FFDDCFED
:101B9000EAFF4A0EE9260F0EEA22EF1C826E020EC1
:101BA000DB6A030EDB6A020EDBCF10F0030EDBCF25
:101BB00011F0D890115004E6040E105C000E11587C
:101BC0006EE2020EDBCFE9FF030EDBCFEAFF4E0E23
:101BD000E9260F0EEA22EF5082143FE1DECF14F027
:101BE000DDCF15F0D89014361536D890143615364A
:101BF000020EDB501424E96E030EDB501520EA6E52
:101C0000D890E936EA362A0EE9260F0EEA22EECF00
:101C100012F0EFCF13F0010E1226000E1322DECFCA
:101C200010F0DDCF11F0D89010361136D890103664
:101C30001136020EDB501024E96E030EDB5011202A
:101C4000EA6ED890E936EA362A0EE9260F0EEA2225
:101C500012C0EEFF13C0EDFF1BD0DECF10F0DDCFC2
:101C600011F0D89010361136D89010361136020E79
:101C7000DB501024E96E030EDB501120EA6ED89081
:101C8000E936EA362A0EE9260F0EEA22EE6AED6AF6
:101C9000020EDB2A030E01E286D7DB2A84D7DF2A75
:101CA000010E01E265D7DB2A63D7040EE15C02E294
:101CB000E16AE552E16EE552E7CFD9FF1200D9CFD4
:101CC000E6FFE1CFD9FF040EE126DE6ADD6ADECF52
:101CD00010F0DDCF11F0D890115004E6040E105C26
:101CE000000E115801E364D2DECFE9FFDDCFEAFF39
:101CF0004A0EE9260F0EEA22EF1C826E020EDB6A04
:101D0000030EDB6A020EDBCF10F0030EDBCF11F007
:101D1000D890115004E6040E105C000E115801E337
:101D200041D2020EDBCFE9FF030EDBCFEAFF4E0EFE
:101D3000E9260F0EEA22EF50821401E065D1D9CFD7
:101D4000E9FFDACFEAFFEE50ED104AE1020EDBCFF9
:101D500010F0030EDBCF11F0D890115004E6030E03
:101D6000105C000E11583CE2DECF14F0DDCF15F010
:101D7000D89014361536D89014361536020EDB502E
:101D80001424E96E030EDB501520EA6E010EE926DD
:101D9000000EEA22D890E936EA362A0EE9260F0E1E
:101DA000EA22EECF12F0EFCF13F0010E1226000E52
:101DB0001322DECF10F0DDCF11F0D890103611369F
:101DC000D89010361136020EDB501024E96E030E47
:101DD000DB501120EA6E010EE926000EEA2208D13E
:101DE000D9CFE9FFDACFEAFF020EEE184AE1ED5053
:101DF00048E1020EDBCF10F0030EDBCF11F0D890DC
:101E0000115004E6030E105C000E11583AE2DECFCA
:101E100014F0DDCF15F0D89014361536D89014365E
:101E20001536020EDB501424E96E030EDB5015202C
:101E3000EA6EE906000EEA5AD890E936EA362A0E2A
:101E4000E9260F0EEA22EECF12F0EFCF13F0010ECB
:101E50001226000E1322DECF10F0DDCF11F0D89045
:101E600010361136D89010361136020EDB50102481
:101E7000E96E030EDB501120EA6EE906000EEA5A05
:101E8000B7D0D950020FE96EDACFEAFF030EEE1891
:101E90002DE1ED502BE1DECFE9FFDDCFEAFF0A0EA9
:101EA000E926000EEA22D890E936EA362A0EE9261B
:101EB0000F0EEA22EECF10F0EFCF11F0010E102638
:101EC000000E1122DECFE9FFDDCFEAFF0A0EE92680
:101ED000000EEA22D890E936EA362A0EE9260F0EDD
:101EE000EA2210C0EEFF11C0EDFF55D1D9CFE9FFB6
:101EF000DACFEAFF030EEE1812E1ED5010E1D950EF
:101F0000020FE96EDACFEAFFEE50ED1008E1010EA4
:101F10000F014625466F000E4721476F3CD1D9CFB0
:101F2000E9FFDACFEAFF030EEE1814E1ED5012E1FB
:101F3000D950020FE96EDACFEAFF010EEE180AE17E
:101F4000ED5008E1010E0F012A252A6F000E2B210A
:101F50002B6F21D1D9CFE9FFDACFEAFF030EEE18BC
:101F600014E1ED5012E1D950020FE96EDACFEAFF29
:101F7000020EEE180AE1ED5008E1010E0F014825AE
:101F8000486F000E4921496F06D1DECF14F0DDCF36
:101F900015F0D89014361536D89014361536020E32
:101FA000DB501424E96E030EDB501520EA6ED89046
:101FB000E936EA362A0EE9260F0EEA22EECF12F0B3
:101FC000EFCF13F0010E1226000E1322DECF10F019
:101FD000DDCF11F0D89010361136D890103611366A
:101FE000020EDB501024E96E030EDB501120EA6E66
:101FF000D890E936EA362A0EE9260F0EEA2212C0F8
:10200000EEFF13C0EDFFC7D0D9CFE9FFDACFEAFF6B
:10201000EE50ED1022E1020EDBCF10F0030EDBCF0D
:1020200011F0D890115004E6030E105C000E115808
:1020300014E2DECF10F0DDCF11F0D890103611365B
:10204000D89010361136020EDB501024E96E030EC4
:10205000DB501120EA6E010E3CD0D9CFE9FFDACF78
:10206000EAFF020EEE1826E1ED5024E1020EDBCF6E
:1020700010F0030EDBCF11F0D890115004E6030EE0
:10208000105C000E115816E2DECF10F0DDCF11F01B
:10209000D89010361136D89010361136020EDB501B
:1020A0001024E96E030EDB501120EA6EE906000EE3
:1020B000EA5A68D0D950020FE96EDACFEAFF030E70
:1020C000EE180BE1ED5009E1DECFE9FFDDCFEAFFCD
:1020D0000A0EE926000EEA2255D0D9CFE9FFDACF61
:1020E000EAFF030EEE180EE1ED500CE1D950020F9D
:1020F000E96EDACFEAFFEE50ED1004E10F01466B16
:10210000476B49D0D9CFE9FFDACFEAFF030EEE18CB
:1021100010E1ED500EE1D950020FE96EDACFEAFF7F
:10212000010EEE1806E1ED5004E10F012A6B2B6B56
:1021300032D0D9CFE9FFDACFEAFF030EEE1810E173
:10214000ED500EE1D950020FE96EDACFEAFF020E30
:10215000EE1806E1ED5004E10F01486B496B1BD00E
:10216000DECF10F0DDCF11F0D89010361136D890B8
:1021700010361136020EDB501024E96E030EDB50D0
:102180001120EA6ED890E936EA362A0EE9260F0EBB
:10219000EA22EE6AED6A020EDB2A030E01E2B2D5F4
:1021A000DB2AB0D5DF2A010E01E291D5DB2A8FD5DB
:1021B000040EE15C02E2E16AE552E16EE552E7CF2E
:1021C000D9FF1200D9CFE6FFE1CFD9FF040EE126F7
:1021D000DE6ADD6ADECF10F0DDCF11F0FD0EDBCF61
:1021E00012F0FE0EDBCF13F011501318E8AE02D040
:1021F000133404D01250105C135011581DE2020E1B
:10220000DB6A030EDB6A020EDBCF10F0030EDBCFBE
:1022100011F0D890115004E6EE0E105C000E11582B
:1022200006E2020EDB2A030EEEE3DB2AECD7DF2AFE
:10223000010ED0E3DB2ACED7040EE15C02E2E16AB4
:10224000E552E16EE552E7CFD9FF1200D9CFE6FFA4
:10225000E1CFD9FF040EE126DE6ADD6ADECF10F0A1
:10226000DDCF11F0D890115004E6040E105C000E82
:10227000115875E2DECFE9FFDDCFEAFF4A0EE9260D
:102280000F0EEA22EF1C826E020EDB6A030EDB6A7F
:10229000020EDBCF10F0030EDBCF11F0D8901150FF
:1022A00004E6040E105C000E11584AE2DECF10F076
:1022B000DDCF11F0D89010361136D8901036113687
:1022C000020EDB501024E96E030EDB501120EA6E83
:1022D000D890E936EA362A0EE9260F0EEA22EE6A8F
:1022E000ED6A020EDBCFE9FF030EDBCFEAFF4E0EF5
:1022F000E9260F0EEA22EF5082141CE1DECF10F027
:10230000DDCF11F0D89010361136D8901036113636
:10231000020EDB501024E96E030EDB501120EA6E32
:10232000D890E936EA362A0EE9260F0EEA22010E87
:10233000EE6EED6A020EDB2A030EAAE3DB2AA8D7B3
:102340008250816EE80EE66E030EE66E3BDFE552CC
:10235000E552DF2A010E01E281D7DB2A7FD7040E86
:10236000E15C02E2E16AE552E16EE552E7CFD9FFB6
:02237000120059
:0E237200D9CFE6FFE1CFD9FFD59EFD0EDBCF20
:1023800052FFFE0EDBCF53FFD59C13681468156A0D
:1023900052CF16F053CF17F0186A1650135C106E18
:1023A00017501458116E18501558126E0C6A010E01
:1023B0000D6E0E6A10C007F011C008F012C009F0CF
:1023C000C5EC15F00350D66E13681468156A52CF29
:1023D00016F053CF17F0186A1650135C106E175092
:1023E0001458116E18501558126E0C6A010E0D6EAD
:1023F0000E6A10C007F011C008F012C009F0C5EC59
:1024000015F007C010F008C011F009C012F0075015
:10241000D76ED59AD586F28AF294F184D58EE5529C
:10242000E7CFD9FF1200D59E120013681468156A11
:1024300052CF16F053CF17F0186A1650135C106E77
:1024400017501458116E18501558126E0C6A010E60
:102450000D6E0E6A10C007F011C008F012C009F02E
:10246000C5EC15F00350D66E13681468156A52CF88
:1024700016F053CF17F0186A1650135C106E1750F1
:102480001458116E18501558126E0C6A010E0D6E0C
:102490000E6A10C007F011C008F012C009F0C5ECB8
:1024A00015F007C010F008C011F009C012F0075075
:1024B000D76ED58E1200D9CFE6FFE1CFD9FFCD90F0
:1024C000FD0EDBCF54FFFE0EDBCF55FF1368146803
:1024D000156A54CF16F055CF17F0186A1650135CD2
:1024E000106E17501458116E18501558126E0C6A51
:1024F000010E0D6E0E6A10C007F011C008F012C078
:1025000009F0C5EC15F00750CF6E13681468156A12
:1025100054CF16F055CF17F0186A1650135C106E92
:1025200017501458116E18501558126E0C6A010E7F
:102530000D6E0E6A10C007F011C008F012C009F04D
:10254000C5EC15F003C010F004C011F005C012F086
:102550000350CE6E9D809E909F90CD8ECD8CCD9859
:10256000CD9ACD96CD92CD80E552E7CFD9FF12001E
:1025700013681468156A54CF16F055CF17F0186A0F
:102580001650135C106E17501458116E18501558D1
:10259000126E0C6A010E0D6E0E6A10C007F011C0AB
:1025A00008F012C009F0C5EC15F00750CF6E1368A3
:1025B0001468156A54CF16F055CF17F0186A1650E4
:1025C000135C106E17501458116E18501558126E77
:1025D0000C6A010E0D6E0E6A10C007F011C008F0F3
:1025E00012C009F0C5EC15F003C010F004C011F0E2
:1025F00005C012F00350CE6ECD801200CD901200B7
:10260000D9CFE6FFE1CFD9FFCA94CC6AFE0EDB50EA
:102610000F01566F576BCB6E9D829E929F92CA9010
:10262000CA92CA84E552E7CFD9FF120056CFCBFF3A
:10263000CA841200CA941200D9CFE6FFE1CFD9FFB5
:10264000B190FD0EDBCF58FFFE0EDBCF59FF1368B4
:102650001468156A58CF16F059CF17F0186A16503B
:10266000135C106E17501458116E18501558126ED6
:102670000C6A010E0D6E0E6A10C007F011C008F052
:1026800012C009F0C5EC15F00750B36E136814685A
:10269000156A58CF16F059CF17F0186A1650135C08
:1026A000106E17501458116E18501558126E0C6A8F
:1026B000010E0D6E0E6A10C007F011C008F012C0B6
:1026C00009F0C5EC15F003C010F004C011F005C00E
:1026D00012F00350B26EA082A192A292B18EB19874
:1026E000B19AB192B180E552E7CFD9FF12001368D9
:1026F0001468156A58CF16F059CF17F0186A16509B
:10270000135C106E17501458116E18501558126E35
:102710000C6A010E0D6E0E6A10C007F011C008F0B1
:1027200012C009F0C5EC15F00350B26E13681468BE
:10273000156A58CF16F059CF17F0186A1650135C67
:10274000106E17501458116E18501558126E0C6AEE
:10275000010E0D6E0E6A10C007F011C008F012C015
:1027600009F0C5EC15F007C010F008C011F009C061
:1027700012F00750B36EB1801200B19012000F0139
:10278000622B000E63236A51625D6B51635904E34F
:10279000626B636B010E5A6F12000F01642B000E07
:1027A00065236C51645D6D51655904E3646B656B21
:1027B000010E5B6F12000F01662B000E67236E5136
:1027C000665D6F51675904E3666B676B010E5C6F62
:1027D00012000F01682B000E69237051685D715162
:1027E000695904E3686B696B010E5D6F1200D9CF04
:1027F000E6FFE1CFD9FFFD0EDBCF6AFFFE0EDBCF98
:102800006BFF0F01626B636B5A6BE552E7CFD9FF29
:102810001200D9CFE6FFE1CFD9FFFD0EDBCF6CFF71
:10282000FE0EDBCF6DFF050E0D6E0E6A6CCF08F04D
:102830006DCF09F09FEC15F008C06CFF09C06DFF6B
:102840000F01646B656B5B6BE552E7CFD9FF12003C
:10285000D9CFE6FFE1CFD9FFFD0EDBCF70FFFE0E33
:10286000DBCF71FF0A0E0D6E0E6A70CF08F071CFCC
:1028700009F09FEC15F008C070FF09C071FF0F014F
:0E288000686B696B5D6BE552E7CFD9FF120004
:02288E00F28EC8
:10289000D08EF28C1200F19CF292F2881200D8CF06
:1028A000E4FFE0CFE4FFE46EDACFE4FFE2CFDAFF4B
:1028B000E9CFE4FFEACFE4FFF6CFE4FFF7CFE4FF90
:1028C000F5CFE4FFF3CFE4FFF4CFE4FFFACFE4FF6A
:1028D00000EE00F0100EE80403E3EECFE4FFFBD7B8
:1028E00000EE10F00A0EE80403E3EECFE4FFFBD79E
:1028F000E652F2A407D013EC12F0F29415EC12F0A9
:10290000BFEC13F09EA007D0FEEC12F09E90B8EC46
:1029100012F0CDEC13F0A1A207D0BDEC13F0A19200
:1029200077EC13F0E9EC13F0F2B2F2929EBA9E9AB1
:10293000E55200EE19F00A0EE80403E3E5CFEDFFDF
:10294000FBD700EE0FF0100EE80403E3E5CFEDFF38
:10295000FBD7E5CFFAFFE5CFF4FFE5CFF3FFE5CFF7
:10296000F5FFE5CFF7FFE5CFF6FFE5CFEAFFE5CFCF
:10297000E9FFE5CFDAFFE550E5CFE0FFE5CFD8FF8F
:102980001000DACFE4FFE2CFDAFFE9CFE4FFEACFCD
:10299000E4FFF6CFE4FFF7CFE4FFF5CFE4FFF3CF9A
:1029A000E4FFF4CFE4FFFACFE4FF00EE00F0100EF6
:1029B000E80403E3EECFE4FFFBD700EE10F00A0ECD
:1029C000E80403E3EECFE4FFFBD7E652F2A407D01E
:1029D00013EC12F0F29415EC12F0BFEC13F09EA081
:1029E00007D0FEEC12F09E90B8EC12F0CDEC13F094
:1029F000A1A207D0BDEC13F0A19277EC13F0E9ECA3
:102A000013F0F2B2F2929EBA9E9AE55200EE19F0DD
:102A10000A0EE80403E3E5CFEDFFFBD700EE0FF06D
:102A2000100EE80403E3E5CFEDFFFBD7E5CFFAFF97
:102A3000E5CFF4FFE5CFF3FFE5CFF5FFE5CFF7FFF7
:102A4000E5CFF6FFE5CFEAFFE5CFE9FFE5CFDAFF17
:022A5000110073
:0E2A520057414954494E472020202020202083
:102A60002000474F205550202020202020202020CB
:102A700020005052455353202A20544F204F504598
:102A80004E00474F20444F574E202020202020202A
:102A900020004348414E47452050415353574F5221
:102AA000442000454E544552204E45572050415336
:102AB0005320200050415353574F52442057524FF8
:102AC0004E4720200050415353574F524420434F0C
:102AD0005252454354002A00454E544552204F4C13
:102AE000442050415353202000454E54455220501D
:102AF000415353574F52442020002320544F20432A
:102B000048414E474520504153530053454C45439F
:102B1000543A2030202D3E20392020002020202033
:102B2000202020202020202020202020005052453E
:0E2B30005353202A20544F204F50454E200072
:022B3E00006A2B
:102B40000EAEA8EF15F00D6C0E1EE86A0E22001EE8
:102B500009AEB0EF15F0086C091EE86A0922001EE4
:102B6000BAEC16F009BEC0EF15F000AE000C086C10
:102B7000091EE86A0922046C051EE86A0522000C99
:102B800000BEB7EF15F00188FF0C006A0EAED0EF63
:102B900015F00C6C0D1E0E1EE86A0D220E22001E92
:102BA00009AEDAEF15F0076C081E091EE86A082264
:102BB0000922001E9DEC16F009BEEDEF15F000AEE7
:102BC000000C076C081E091EE86A08220922036C23
:102BD000041E051E04220522000C00BEE1EF15F0C4
:042BE0000188FF0C5D
:0C2BE4001E0EF66E000EF76E000EF86E6E
:102BF00001010900F550056F0900F550066F03E16A
:102C0000056701D03DD00900F550006F0900F5506F
:102C1000016F0900F550026F09000900F550E96ED7
:102C20000900F550EA6E090009000900F550036F2C
:102C30000900F550046F09000900F6CF07F1F7CF3E
:102C400008F1F8CF09F100C1F6FF01C1F7FF02C199
:102C5000F8FF0101035302E1045307E00900F550B6
:102C6000EE6E0307F8E20407F9D707C1F6FF08C1C3
:102C7000F7FF09C1F8FF01010507000E065BBFD78A
:022C8000120040
:0E2C820006500B02F3CF02F0F4CF03F00C0269
:102C9000F3500326000EF420046E06500D02F3508C
:102CA0000426000EF420056E06500E02F350052691
:102CB00007500B02F3500326F4500422000E0522A5
:102CC00007500C02F3500426F450052207500D0261
:102CD000F350052608500B02F3500426F450052249
:102CE00008500C02F350052609500B02F35005263C
:022CF0001200D0
:0E2CF200056A046A036A026A200EE76ED89033
:102D000006360736083609360236033604360536E7
:102D10000B50025C0C5003580D5004580E500558CF
:102D200009E30B50025E0C50035A0D50045A0E502A
:0A2D3000055A062AE72EE4D7120028
:062D3A00056A046A036A49
:102D4000180EE76ED8900736083609360336043673
:102D500005360C50035C0D5004580E50055807E31F
:102D60000C50035E0D50045A0E50055A072AE72EE8
:042D7000EAD712008C
:0C2D7400056A046A100EE76ED89008365D
:102D80000936043605360D50045C0E50055805E32F
:102D90000D50045E0E50055A082AE72EF0D7120097
:102DA000800EF36E00EE00F00F0E01D81200EA6004
:102DB00002D0EE6AFCD7F350E9601200EE6AFCD74D
:102DC0001EEE00F02EEE00F0F86A019CF2EC15F019
:0C2DD00003EC00F044EC07F0FBD712000D
:042DDC0000000000F3
:102DE00000000000000000000000000000000000E3
:0C2DF000000000000100010001000100D3
:042DFC0001020408C4
:102E000010204080000000000000000000010203CC
:102E100004050607080941424344452A0102030408
:062E2000000000000000AC
:0A2E26000000000000000000101082
:102E300010101010101018181818181818181C1C3A
:102E40001C1C1C1C1C1C1E1E1E1E1E1E1E1E1F1FAC
:102E50001F1F1F1F1F1F00000000000000000000B8
:102E60000000000000000000000000000000000062
:102E70000000000000000000000000000000000052
:072E8000000000000000004B
:092E870000000000000000000042
:102E9000000000000000000000000000000000042E
:032EA0000001002E
:0D2EA3000000000000000000000000000022
:102EB0000000000000000000000000000000000012
:0B2EC000000000102040800102040808
:020000040030CA
:0100010002FC
:0100020003FA
:010003001EDE
:010005008179
:010006008178
:010008000FE8
:01000900C036
:01000A000FE6
:01000B00E014
:01000C000FE4
:01000D0040B2
:00000001FF
